:020000040800F2
:1000000080110020E5080008AD050008D1080008AF
:10001000D1080008D1080008D1080008000000003D
:10002000000000000000000000000000A10900081E
:10003000D1080008000000003D0900086118000810
:100040001D0B00081D0B00081D0B00081D0B0008F0
:100050001D0B00081D0B00081D0B00081D0B0008E0
:100060001D0B00081D0B00081D0B00081D0B0008D0
:100070001D0B00081D0B00081D0B00081D0B0008C0
:100080001D0B00081D0B00081D0B00081D0B0008B0
:100090001D0B00081D0B00081D0B00081D0B0008A0
:1000A0001D0B00081D0B00081D0B00081D0B000890
:1000B0001D0B00081D0B00081D0B00081D0B000880
:1000C0001D0B00081D0B00081D0B00081D0B000870
:1000D0001D0B00081D0B00081D0B00081D0B000860
:1000E0001D0B00081D0B00081D0B00081D0B000850
:1000F0001D0B00081D0B00081D0B00081D0B000840
:100100001D0B00081D0B00081D0B00081D0B00082F
:100110001D0B00081D0B00081D0B00081D0B00081F
:100120001D0B00081D0B00081D0B00081D0B00080F
:100130001D0B00081D0B00081D0B00081D0B0008FF
:100140001D0B00081D0B00081D0B00081D0B0008EF
:100150001D0B00081D0B00081D0B00081D0B0008DF
:100160001D0B00081D0B00081D0B00081D0B0008CF
:100170001D0B00081D0B00081D0B00081D0B0008BF
:100180001D0B00081D0B00081D0B00081D0B0008AF
:080190001D0B00081D0B000807
:1001980053B94AB9002908BF00281CBF4FF0FF31E6
:1001A8004FF0FF3000F00CB8ADF1080C6DE904CE4B
:1001B80000F008F8DDF804E0DDE9022304B0704738
:1001C800704700BF2DE9F04786468C460846089ED2
:1001D800154674461946002B40F0C2808542B2FA93
:1001E80082F245D94AB1C2F1200300FA02FC2EFA84
:1001F80003F3954043EA0C0C94404FEA154EA8B21D
:10020800BCFBFEF8230C0EFB18CC08FB00F943EAF4
:100218000C43994528D9EB1808F1FF3704D29945C2
:1002280002D9A8F102072B44A3EB0903A4B2B3FB3C
:10023800FEFC0EFB1C330CFB00F044EA0344A04216
:1002480014D92C190CF1FF3304D2A04202D9ACF115
:1002580002032C44241A43EA07401EB1D440002369
:1002680034607360BDE8F0874746DDE76346F1E731
:1002780092BB431B01214FEA154EAFB2B3FBFEFC04
:10028800200C0EFB1C330CFB07F840EA034398458F
:1002980062D9EB180CF1FF3004D2984502D9ACF1C1
:1002A80002002B44A3EB0803A4B2B3FBFEFC0EFB35
:1002B8001C330CFB07F744EA0344A7424ED92C1918
:1002C8000CF1FF3304D2A74202D9ACF102032C444B
:1002D800E41B43EA0040C0E7C2F1200320FA03F11F
:1002E800954090402EFA03F303434FEA154EAFB200
:1002F800B1FBFEFC0EFB1C10190C0CFB07F841EAC5
:100308000041884504FA02F422D969180CF1FF303B
:1003180004D2884502D9ACF102002944A1EB0801B6
:100328009BB2B1FBFEFC0EFB1C110CFB07F743EA6A
:1003380001439F420ED9EB180CF1FF3104D29F42C2
:1003480002D9ACF102012B44DB1B41EA004192E7E0
:100358006046E3E76146F7E76046A3E76346B7E729
:10036800834206D916B9002108467BE7C6E900E0B2
:10037800F9E7B3FA83F78FB9834201D3724508D8F6
:10038800BEEB020460EB030301209C461EB900216A
:1003980068E73846FAE7C6E9004CF8E7C7F1200CE9
:1003A800BB4022FA0CF41C432EFA0CF120FA0CF391
:1003B800B84001434FEA14490EFA07F5B3FBF9F8C0
:1003C8001FFA84FE09FB18300B0C08FB0EFA43EAEF
:1003D80000439A4502FA07F240D9E31808F1FF30C2
:1003E80004D29A4502D9A8F102002344A3EB0A03D8
:1003F80089B2B3FBF9F809FB183308FB0EFE41EA92
:1004080003418E452CD9611808F1FF3304D28E457B
:1004180002D9A8F10203214443EA0040A0FB029854
:10042800A1EB0E014145CE46434602D306D14D45C8
:1004380004D2B9EB020E68EB04030138002EA6D0F3
:10044800B5EB0E0261EB030101FA0CFC22FA07F38B
:100458004CEA0303F940C6E9003198E74046C5E78E
:100468004346D9E7F8B5184D284603F07EF8044608
:1004780038B32A69A968136823F4005313600B681A
:100488004FF420220D2128469847002819DB0F4FEA
:100498000F4EAB684FF400515B6928469847002817
:1004A8000FDB84F0010414F0FF0414BF3946314611
:1004B800084802F01FF9002142F2107003F0D5F845
:1004C800E7E70020F8BD00BF34390008663E0008A1
:1004D800693E00086D3E0008014B1B68184700BFC5
:1004E80000000020014B1860704700BF000000208A
:1004F80030B585B004460D4610220021684603F049
:1005080019F902238DF802302A46044B019321463B
:10051800684602F001F905B030BD00BFE1040008EB
:1005280080B505460E461746984601F099FE0346E3
:1005380003F06CF9DFF81890044649F80030424699
:1005480030463946A84754F8090000F0DDF900BFE5
:1005580008000000034A536823F002035360002098
:10056800704700BF002004E0084B1A6842F480720C
:100578001A601A6842F400721A601A6842F48062BB
:100588001A60034B034A1A60704700BF003C0240E0
:10059800300000200024F400014B03600020704765
:1005A800E43C000808B5034B1B689847BDE80840C1
:1005B80000F026B80400002030BFFFF7FDBF00BFE1
:1005C8002DE9F0410B4EDFF8308006EB0807CC1B15
:1005D800054632460949204603F09EF8A0194246CE
:1005E8000021083C03F0A6F82C6707F10800BDE8D5
:1005F800F08100BF0000000004000000E43C000897
:10060800074A936893F90E10002907DB5269934251
:100618001FBF044A536843F080535360704700BFBC
:100628006003002000ED00E070B5264B15469A6A7D
:1006380012F0100F9A6A14BF1124102412F0080F38
:100648009A6A18BF1224920706460AD5586B9A6A06
:10065800140634D519B19A6A22F080029A621324DA
:1006680001E06FF01500174B9A6A12F0010F9A6AB1
:1006780018BF142412F0200F9A6A18BF1524D20646
:1006880002D49B6A9B070AD50E4B5B68190506D5F1
:10069800314600F0F9F910B180F309880224094BBA
:1006A8009A6A920642BF5A6A22F400525A629A6AB9
:1006B80042F0FF029A6200232B70204670BD6FF053
:1006C8001500CCE700ED00E0134B9A6A12F0007FAA
:1006D8009A6A14BF1E201D2012F0807F9A6A18BFE4
:1006E8001F2012F4002F9A6A18BF212012F4802FBD
:1006F8009A6A18BF222012F4003F9A6A18BF232072
:1007080012F4803F9A6A6FEA02426FEA12429A62D2
:1007180018BF2420704700BF00ED00E010B5194B4A
:100728000246986A9C6A10F4805F14BF172016204E
:1007380014F4006F9C6A18BF1820A40509D5986B9B
:10074800986A000404D51AB19A6A22F400429A629F
:1007580019200C4B9A6A12F4806F9A6A18BF1A20F3
:10076800D2050CD49B6A13F4005F18BF1C20054AFD
:10077800936A43F47F43936200230B7010BD1B20E0
:10078800F5E700BF00ED00E0F0B5484B5B688BB0C3
:100798000446C3F30803002585F31188BFF36F8F60
:1007A80002F07F40B0F17F4F11D102F00C00082811
:1007B8000DD010074CBF0C4601250022033B8DF8D5
:1007C8000720032B05D8DFE803F0246367602C4675
:1007D800F3E700239DF80720CAB902AE04F1200709
:1007E80020686168324603C20834BC421646F7D115
:1007F800099A002D54D0C2F3080121B96FEA522298
:100808006FEA4222099202A9184602F05BFA0BB07D
:10081800F0BD264BDA6A9107DBD4DA6A002AD8DB06
:10082800DA6A5200D5D55A69A16942F480725A61D0
:10083800BFF34F8FBFF36F8F5A6931F8021C22F450
:1008480080725A61BFF34F8FBFF36F8F4DF60272FC
:1008580091420AD09A6AD2B24AB10DF10702012137
:100868002046FFF7E1FE0346B4E72368B2E79A6A39
:1008780012F47F4F05D00DF107010120FFF74EFF5D
:10088800F1E79B6AB3F5803FA3D3FFF71DFFEAE7C3
:100898000DF107020021E3E70DF107010020EDE764
:1008A80022F4FF7222F00102ACE700BF00ED00E085
:1008B800044B5A6942F010025A615A6922F0080240
:1008C8005A61704700ED00E0EFF30880EFF309810B
:1008D80001B57246FFF758FF01BD00BF102080F335
:1008E800118808484FF40461401880F30988EFF331
:1008F80014800221084380F31488BFF36F8F00F03F
:1009080083F80000C0030020084B9B6883420BD18A
:10091800EFF3058343B1064B5A6842F080525A60A0
:100928005A6A22F400425A6201F0A0BC6003002017
:1009380000ED00E015498A684FF030001044EFF3ED
:10094800098C80E8F01F102080F31288BFF36F8FA6
:100958000F4F4FF000664A698A603E604FF070049E
:10096800141920680B4C2060506F0023536780F3E4
:10097800118804B5104600F0EBF8BDE8044002F118
:10098800300090E8F01F8CF309887047600300205E
:1009980004ED00E0180200201EF0040F0CBFEFF376
:1009A8000880EFF30980816911F8021C0229FFD041
:1009B80001B5724602F08CF901BD00BF40B20028B3
:1009C80007DB044A4109012300F01F00834042F875
:1009D8002130704700E100E040B20028A8BF00F1D4
:1009E800604001F10101B8BF064B4FEA0111ACBFED
:1009F80000F5614000F00F00C9B2B4BF195480F887
:100A08000013704714ED00E00F4A08B50F4B22F0B1
:100A18007F029A60BFF34F8FBFF36F8FD3F88820A0
:100A280022F47002C3F88820EFF3148323F0040340
:100A380083F31488BFF36F8F01F01CF901F01EFDDA
:100A480000F05CF801F05AF90000000800ED00E041
:100A580042F8203C009B42F81C3C0A49019B42F8A2
:100A6800183C029B42F8143C21F001014FF08073BE
:100A780042F8043C42F8081C0023203A0265436708
:100A8800704700BF29050008094A0346906870B1FD
:100A980013F1160F006E05D0A0F140029A4205D856
:100AA800834203D2814228BF00207047002070474C
:100AB8006003002008B51546094A0A4B9060026F8A
:100AC8001A600E4600F044F82C4686F30988002088
:100AD800054B98472046002100220023034C20475D
:100AE8006003002018020020E92C000829050008EE
:100AF800014B10221A61704700ED00E00448002302
:100B08001021C2180133562B82F80013F9D170470F
:100B180000E100E008B5EFF30583064A103B02EB5D
:100B2800C30152F8330049688847BDE80840FFF719
:100B380067BD00BF98390008024B034A03480121EA
:100B480000F076B80000022000000020E43C000815
:100B5800026E054B403A1A60044A4021C3E901126B
:100B68001846012100F06EB81C02002000000B1589
:100B7800084AC2F898000B6823F01F03034343F0A8
:100B88001003C2F89C308B6843F00103C2F8A03010
:100B9800704700BF00ED00E02DE9F043DFF860800A
:100BA80085B00E461F4604464FF00009B14523DACA
:100BB8006068D8B13FB1411E08421BD11F2819D91E
:100BC8002368194216D12368019302F09DF8A3689F
:100BD80003430393D8F89050C5F30725D0B2013DDD
:100BE800A84207D801A9FFF7C3FF421C09F1010970
:100BF8000C34DBE76FF01502104605B0BDE8F08352
:100C080000ED00E0044B0522C3F89420BFF34F8F9A
:100C1800BFF36F8F704700BF00ED00E0BFF35F8F39
:100C2800024B0022C3F89420704700BF00ED00E09B
:100C380010B5034C01232278FFF7AEFF207010BDDA
:100C48009003002008B50B4A00231278FFF7A4FF91
:100C580010F1160F07D0084A0021D2F89030C3F3DC
:100C68000723984200DB08BDC2F89800C2F8A0101C
:100C78000130F2E79003002000ED00E02DE9F04399
:100C8800534B544CD3F890302568C3F307239D4247
:100C980085B000F29A80FFF7C1FF00200C2685423C
:100CA8001AD14D4C4D4F25706846FFF775FCDFF89B
:100CB8002081DFF82C9106460025AE4213D1237817
:100CC80043490020D1F89020C2F30722934276DBF3
:100CD800FFF798FF002042E0616806FB0011FFF76C
:100CE80047FF0130DBE7009800EB05114FEA051CD0
:100CF800CB683B40B3F5000F48D00AD8B3F5001FC6
:100D080030D0B3F5800F36D0B3F5801F10D0013541
:100D1800D3E7B3F1807F42D0B3F1007FF7D150F829
:100D28000C3088684A6801F0EFFF40F4802009E041
:100D380050F80C3088684A6801F0E6FF40F08850A7
:100D480040F43020CDE901230390D8F89030207882
:100D5800C3F30723013B98422AD96FF0150005B069
:100D6800BDE8F08350F80C3088684A6801F0CCFF81
:100D780040EA0900E6E750F80C3088684A6801F054
:100D8800C3FF40F0E06040F40030DBE750F80C307F
:100D980088684A6801F0B8FF40F08270D2E750F8DE
:100DA8000C3088684A6801F0AFFF40F08870C9E7E6
:100DB80001A9FFF7DDFE237801332370A7E7C1F807
:100DC8009830C1F8A00001337CE74FF0FF30C6E748
:100DD80000ED00E0F03C0008900300200000F0FF68
:100DE8000000081108B5024B1B689847002008BD91
:100DF80028020020034B044A1860937843F002034A
:100E080093707047280200200800002008B50649A2
:100E1800064821F00701C1F1005202F5003201F045
:100E280004FF002008BD00BFC71100202C020020CD
:100E38002DE9F041104E114F054600244FF00108EE
:100E48002B7871691A19D2B208FA02F201EA020083
:100E58008A4309D153FA84F3706157F833201AB1E1
:100E680007EBC303596890476A780134E3B29A42A2
:100E7800E6D2BDE8F08100BF003C01403802002006
:100E8800044B184400230133994200F8012BFADC83
:100E9800704700BF3C00002007B506220121002052
:100EA800FFF7EEFF002211460620FFF795FD01210E
:100EB80008460722FFF7E4FF002211460720FFF744
:100EC8008BFD082201210220FFF7DAFF00221146DC
:100ED8000820FFF781FD092201210320FFF7D0FF39
:100EE800002211460920FFF777FD0A22012104207C
:100EF800FFF7C6FF002211460A20FFF76DFD052106
:100F080008461722FFF7BCFF002211461720FFF7FB
:100F180063FD282206210A20FFF7B2FF00221146AE
:100F28002820FFF759FD442205484FF48043CDE9B6
:100F38000023836869461B68984703B05DF804FB83
:100F4800A8380008034660B1B0FA80F2C2F11F0267
:100F5800D2B205498856054A11680B431360FFF75A
:100F68002DBDFF22F5E700BF3C000020003C0140FA
:100F7800024A136823EA000313607047003C0140EB
:100F8800032921D8DFE801F0020C10190F4B9A68E9
:100F980022EA00029A60DA6822EA0002DA60704700
:100FA8000A4B9A680243F5E7084BDA680243DA60AD
:100FB8009A6822EA00029A607047044B9A680243D2
:100FC8009A60DA681043D860704700BF003C01405F
:100FD80030B5B0B1B0FA80F3C3F11F03DBB20B48F0
:100FE80050F833408C4204D100EBC3056D6895423C
:100FF80005D044B940F8331000EBC300426000202C
:1010080030BDFF23EBE76FF00F00F9E7380200204F
:1010180060B1B0FA80F3C3F11F03DBB2044A0021C8
:1010280042F8331002EBC30251607047FF23F5E723
:101038003802002000F00302043292000F2393408C
:1010480043EA9000C3B20233054A52F82320030C46
:1010580002EA104093FAA3F3B3FA83F3D840704737
:101068000038014038B50888244BC0F30B00072826
:101078001B680D46144614D810B96FF0850038BDAA
:101088000238052806D8DFE800F02F032F2D202688
:101098004FF4FA4323602968B1F5805F26D2002017
:1010A800EDE744280ED82F28E7D900F57D61C1F374
:1010B8000B0101228A4012490A42EBD14028DCD1B7
:1010C8005B08E7E7A828E5D0D7E700F0ADF860228D
:1010D80083085343F4E700F0A7F8602283085343DA
:1010E8009B08D7E7074BD5E70023D3E7C1F31331B4
:1010F8000131B3FBF1F32360D1E700BF30000020DA
:101108001101100000127A0070B5434D434C00F0F5
:10111800ABF8284601F0B7FE00F068FCA368404A27
:10112800C3F30313D35C20FA03F613781D41AE42D0
:1011380002D2284600F088FC236823F48023236029
:10114800236843F480332360344B1A689103FCD539
:101158005A6F42F001025A675A6F9207FCD59A6893
:1011680002F00C02082A17D11A68940707D41A68E3
:1011780042F001021A60294A13689807FCD5274BE8
:101188009A6822F003029A609A6812F00C0FFBD159
:101198009A6822F0F0029A60204C236823F080734A
:1011A800236023689901FCD4636823F440336360A7
:1011B800636823F0706343F08063636000F038F87D
:1011C800236843F080732360144B1A689201FCD59E
:1011D8009A6822F0F0029A609A6822F0030242F0BC
:1011E80002029A609A6802F00C02082AFAD1AE420A
:1011F80002D3284600F028FC0A4B074A1A60074A1F
:10120800936823F4E05343F480539360936823F482
:1012180060439360002070BD00D8B80500380240D4
:10122800553F0008300000200048704700127A003F
:10123800084B09495A681140084A0A435A605A68D3
:10124800074922F440325A605A681140054A0A4355
:101258005A607047003802400080BFFF0418400001
:101268000080BFF004184004064B1A6C42F080520C
:101278001A641B6C82B003F080530193019B02B087
:10128800704700BF0038024008B5074802F06DF902
:1012980038B10648FFF7AEFD0448FFF723F90020F0
:1012A80008BD6FF01200FBE784390008B912000886
:1012B8000A2838B5074D044604D1AB680D215B6890
:1012C80028469847AB6803485B68E1B298472046D0
:1012D80038BD00BF843900082DE9F843D0F80480F0
:1012E800D0F81090D8F8080017460D461E4601F0B1
:1012F80020FDB7F5001F044616D12846D8F8084047
:10130800FFF798FE84420CD1294601F012FD0446ED
:10131800FFF72EFE2046FFF77BFE00212046FFF751
:101328002FFE0020BDE8F883B7F5800F20D0B6F176
:10133800806F19D0B6F1C06F18D0B6F1007F1AD1FE
:10134800022610494A462046FFF742FEB0B9D8F8AF
:101358000810284601F0F0FC20463146FFF710FE41
:101368002046FFF7EFFDDCE70126EAE70326E8E77A
:101378006FF08500D6E76FF01500D3E76FF00F0028
:10138800D0E700BF4F31000838B5036904465860FC
:10139800084D284602F0E9F840B16168AB680C31A5
:1013A8001B682846984700EAE07038BD6FF01200C5
:1013B800FBE700BFA83800082DE9F0471E4F044698
:1013C80000EBC1060025B44201D1002014E02068DA
:1013D800C30600F01F0911D4656845F02005C0F365
:1013E800481AC0F344200F2823D857F82080B8F1B2
:1013F800000F0DD16FF01200BDE8F087B9F1100FA2
:1014080004D0B9F1110FEAD16568E8E73025E6E7BD
:10141800404602F0AAF80028ECD04B462A460AF0CB
:101428000F01404601F0A5FE002804F10804CADABD
:10143800E2E76FF01500DFE7B43D000843681B687A
:1014480003F1140252E8002F42F0010203F11400E4
:1014580040E800210029F3D10D4A934207D0A2F5B4
:101468004C42934203D002F55042934203D11A6989
:1014780042F040021A6103F10C0252E8002F42F4D4
:10148800807203F10C0040E800210029F3D1704775
:101498000010014043681B6803F1140252E8002F52
:1014A80022F0010203F1140040E800210029F3D1E1
:1014B8000D4A934207D0A2F54C42934203D002F55D
:1014C8005042934203D11A6922F040021A6103F193
:1014D8000C0252E8002F22F4807203F10C0040E85D
:1014E80000210029F3D1704700100140F8B50369C5
:1014F8000C465E6823794168012B34D09A1E554208
:101508005541AD026279022A9CBF354F37F812C0A7
:10151800A27988BF4FF4005C042A27D0003B18BF8B
:1015280001231B03E279012A0A680CBF4FF44077B4
:101538000027A642D1681CD121F4B05129430B439E
:10154800D360136923F4405343EA0C0313614368DF
:101558001A68536923F440733B4353613168BDE80B
:10156800F84001F01CBF4FF4C065CBE74FF480533F
:10157800D8E701F4C0618D421FBFD16821F4C06172
:101588002943D160426811680A6902F440529445BF
:101598001FBF0A6922F4405242EA0C020A614268FB
:1015A8001168CA6802F4805293421FBFCA6822F4C5
:1015B80080521343CB6043681A68536903F440733D
:1015C8009F421FBF536923F440733B435361216813
:1015D8003368994203D001F0E2FE23683360F8BD16
:1015E800603E00082DE9F04143681D680369D3F89F
:1015F80004800B790C46012B4979A67933D102294D
:101608004CD9042E47D04FF480574FF4C0620323BF
:101618008B4240D1002F79D0002A14BF0322042224
:10162800B24238D1E37963B1012B34D13A4B9D42B0
:1016380007D0A3F54C439D4203D003F550439D4288
:1016480029D1EB6823F40053EB602146FFF74EFFE6
:10165800EB6843F40053EB6094E8030088E8030068
:101668000020BDE8F081022B08D1022921D9042EDF
:1016780011D04FF480624FF48057C8E702290A4618
:101688001FD9042E04D133B94FF480571A46BEE748
:1016980063BB0329C4D06FF08500E2E71F4A042E1C
:1016A80032F811C0F7D04FF4C062033B012B10D8B9
:1016B800F1E71A4A042E32F811C0ECD04FF48062D8
:1016C800F3E7164A042E32F811C016D1002BE2D1E6
:1016D8001A464FF48057BCF5805F13D0BCF5405FC5
:1016E80012D0BCF1000F92D1012391E7033B012BEB
:1016F800D1D90022BFE70022D7E7002BFBD11A4639
:101708001F46E8E7002383E7022381E7002A14BF86
:101718000222032284E700BF00100140603E000857
:101728002DE9F3410569476804462948286001F016
:101738001CFF20B96FF0120002B0BDE8F0812868E4
:10174800F96883681B6898470028F5DB386A01AA9E
:10175800002101F026FD0028EEDB019B002219790B
:101768001868FFF729FE0028E6DB666823693568F4
:10177800D3F80480EB6823F40053EB60706801F041
:10178800F4FE0028D6D0D6E901018368DB6803B1EE
:10179800984705F10C0353E8003F43F00C0305F1AB
:1017A8000C0141E80032002AF3D141462046FFF7F8
:1017B8009DFE337D1BB16B6943F008036B61EB68D9
:1017C80043F40053EB6020467B6A98470020B3E758
:1017D800A838000810B54FF0E0230F499C691A6932
:1017E80008689B690D4902F4803234B993B90346FD
:1017F8004AB90A681044C01A10BD002B08BF034636
:101808000AB9A342F5D90A6802440A604FF0E022F7
:101818001269EEE70446F3E75C0300205803002052
:101828000A4B102283F82320094B4FF416521A60F2
:10183800084B002018604FF0E02342F27F525A61B3
:1018480098611A6942F007021A61704700ED00E0DA
:101858005C03002058030020684620F007018D46ED
:1018680019B5FFF7B7FF114B1149D3E900420868D2
:10187800001942F10002C3E900020E4A00230B607E
:10188800D2E900414FF41653001BB0FBF3F0434379
:101898001B1941F10001C2E9003100F0AFFEFEF76B
:1018A800AFFEBDE819408546704700BF70000020B4
:1018B80058030020680000202DE9F041DFF8DC80A3
:1018C80099B1421C0BD14FF0E022136923F00103B8
:1018D80013614FF07F43C8F80030BDE8F081D8F8B5
:1018E8000060012807DC00270BE0431CD8F80060E3
:1018F800F7D140F2D26040F2D3639842A8BF1846AD
:10190800471EEFF31185102383F31288BFF36F8FFF
:10191800FFF760FF224C4FF0E0239969D4E90023D8
:10192800801843F10003C4E900031E4B00221A602B
:101938001D4B1A68831A2ED44FF4165C0CFB073320
:1019480003F515533F33B3FBFCF7131A0CFB0733AE
:10195800B3F5806F154A38BF4FF48063934228BFB0
:1019680013464FF0E022C8F80030013B90695361FC
:10197800002393618142A1EB0003D4E9001238BF30
:101988009B195B1842F10002C4E9003285F3118803
:10199800BFF36F8FA1E74FF48063E2E75C03002099
:1019A80070000020580300206800002000C3FF00DA
:1019B80038B5EFF31185102383F31288BFF36F8FC7
:1019C800084B1C68084B1B68E41AFFF703FF85F3F4
:1019D8001188BFF36F8F4FF416532044B0FBF3F018
:1019E80038BD00BF700000206800002008B513490A
:1019F8008B6803F00C03042B1CD0082B1CD14A68FD
:101A08004B68496813F4800314BF0D480D48C1F3AF
:101A1800881118BF002302F03F02A1FB0001FEF766
:101A2800B7FB064B5B68C3F3014301335B00B0FBB4
:101A3800F3F008BD0248FCE70248FAE70038024024
:101A480000127A000024F400002876D03C4B1A6873
:101A580002F44042B2F5404F20D13A4A904215D89C
:101A6800394A904207D91A6802F44042B2F5004F49
:101A78005CD102201FE0354A90421A6802F44042C5
:101A880047D9B2F5004F4CD1012014E01A6802F48E
:101A98004042B2F5004F3FD103200CE01A6802F42F
:101AA8004042B2F5004F22D1274A90423ED8274AF9
:101AB80090422ED90020224B1B68012838BF0120F4
:101AC80003F44043B3F5804F1FD0214A136823F035
:101AD800070303431360136803F0070398421CBF0E
:101AE800136803F00703C01A18BF012070471B686A
:101AF80003F44043B3F5804F0CD1134B98421AD8E6
:101B0800124B98424FF00000DFD9012838BF01205E
:101B1800DBE71B680020D8E71B68032003F4404379
:101B2800D0E71B68012003F44043CBE71B68022081
:101B380003F44043C6E70220C7E70120704700BF0F
:101B480000700040804A5D050090D00380C3C90141
:101B5800003C024038B5EFF31185102383F3128857
:101B6800BFF36F8F064B9C6801F012FD85F3118857
:101B7800BFF36F8F2046BDE83840FEF7C5BE00BFF3
:101B88006003002038B5094B53F82040013053F862
:101B98002050A54200D838BD636823B1204601F023
:101BA800FAFC0834F5E723689847FAE7483E000846
:101BB80070B52B4B2B4C2C4D012286B003201A708C
:101BC800FFF7E0FF00F090FD01F001FD0420FFF7B2
:101BD800D9FF2646AE4204F1300410D300F046FA8D
:101BE800204C224EAC4226D300F054FAFEF73AFCC1
:101BF8001F4A137B23F00103137306B070BD54F81A
:101C08000C3C059354F8103C049354F8143C03938B
:101C180054F8183C029354F81C3C019354F8203CA7
:101C2800009354E90A2354E90C0100F0CFF854F862
:101C3800303C5E65CDE7D4E90A23B3F1FF3F08BF26
:101C4800B2F1FF3F05D052EA0301206803D100F04A
:101C5800E1FA3034C6E73146183000F059FCF8E7AD
:101C680091030020483C0008483C00086B360008F7
:101C7800F800002008B50348034A0021121A01F0B1
:101C8800A2FC08BD680000209403002070B5002362
:101C980086B00122CDE90423134E144D01930F227F
:101CA800CDE902321249142303FB005506EBC01696
:101CB80004464FF4C07000FB04110E4B00954FF41E
:101CC800A072304600F082F8737B0B4AEE6023F076
:101CD800040373734FF4046304FB033313442C7439
:101CE8006B6006B070BD00BF780000206003002064
:101CF800000C0020D9350008C0030020BFB5002023
:101D0800FFF740FF294B83F30888294C294F636963
:101D180043F4007363610025F02384F82230E577EB
:101D280025766576A57684F82050636A43F4E02327
:101D38006362FEF7BDFDFEF7DBFE4FF0FF33A362E3
:101D4800E362FEF79BFFFEF7F7FE1B481B4C00F013
:101D580089F801F009FCFEF707FC0120FFF712FFE4
:101D68000220FFF70FFF00F0C9F9154B15495C6118
:101D7800154B05930123CDE903534FF480623B468D
:101D8800CDE901550095204600F020F8627B064613
:101D980022F004022046627301F037FC2846FFF760
:101DA80075FF3A4631462046FEF784FE000C0020B7
:101DB80000ED00E0B91B000878010020F8000020C1
:101DC80060030020800D0020653F00082DE9F043E6
:101DD800073285B022F007020E461F46109901739C
:101DE80000F158037F32C0E916330446002322F07D
:101DF8003F020421836041733F2A0F98A073C4E90E
:101E08000633E37306F14009A2F1400805D883F3CD
:101E18001188BFF36F8F084602DFB51829462046A0
:101E2800FEF7CEFB07300E9B20F00700A066C4E942
:101E3800189802930D9B01932D1A0C9B00932A4628
:101E48003B4631462046FEF703FE00236365044BFC
:101E58009B6803B1DB6EE366284605B0BDE8F083F6
:101E68006003002040F2011383810023C0E9183386
:101E7800C366014B9860704760030020094A936865
:101E88006FF00A019967084958674B6843F0805317
:101E98004B60002383F31188BFF36F8F9368986FAB
:101EA800704700BF6003002000ED00E070B590F9B6
:101EB8000D20437B002A39DBD90637D18269002AF5
:101EC80034D11D4C63F07F032246437352F8183F08
:101ED80093422CD1E169C0E900210860E06111E07A
:101EE8009942F8D01B68002BF5D090F90E5093F961
:101EF8000E60B542F4D0AE42F2DD5968C0E9003157
:101F080008605860A569954200D005B9E568A368DE
:101F18005A7BD20604D1DA897F2A01D9AA6942B14B
:101F2800AB4202D0284600F051FA656170BDE16904
:101F3800D9E76361FAE700BF6003002038B590F97C
:101F48000D20437B002A014604DA03F07F03437324
:101F580001F049FB0D4D2A46AB6852F8184F9442E0
:101F680000D004B9EC688B4207D05A7BD20604D162
:101F7800DA897F2A01D9A2692AB1A34202D0204670
:101F880000F024FA23466B6138BD00BF60030020CF
:101F980070B590F90D20437B002A014604DA03F05E
:101FA8007F03437301F01FFB4B7B1C4C63F07F03E3
:101FB80022464B7352F8183FE069934207D1C1E9B2
:101FC80000200160E16111E09842F8D01B68002B05
:101FD800F5D091F90E5093F90E60B542F4D0AE42A7
:101FE800F2DD5868C1E9003001605960A569A3684D
:101FF800954200D005B9E5688B4207D05A7BD206D6
:1020080004D1DA897F2A01D9AA692AB1AB4202D060
:10201800284600F0DBF92B46636170BD60030020A1
:1020280049B9EFF3058030B9054B5A699B689A4264
:1020380001D0FFF723BF81F31188BFF36F8F70477B
:1020480060030020034648B9EFF3058232B9064A17
:1020580051699268914201D0FFF710BF83F311884C
:10206800BFF36F8F704700BF60030020EFF311814B
:10207800102383F31288BFF36F8F054B9A68D37BC5
:10208800013BD37381F31188BFF36F8F704700BF93
:102098006003002070B5EFF31186102383F31288D4
:1020A800BFF36F8F144DAB68DA7B0132DA732A46BF
:1020B80052F8184F944200D004B9EC685A7BD20603
:1020C80004D1DA897F2A01D9A2692AB1A34202D0B0
:1020D800204600F07BF923466B6186F31188BFF335
:1020E8006F8FEFF31180102383F31288BFF36F8F84
:1020F800BDE87040FFF7A6BF60030020024B03F164
:102108001802C3E9062270476003002070B5EFF398
:102118001186102383F31288BFF36F8F1B4CA168BD
:10212800E0690B68814214BF1A46002249680B60B7
:102138005960A368E1692AB9154AC3E900210B600F
:10214800E3610CE093F90E0092F90E50A84218D002
:10215800854216DD5168C3E900210B605360A5690B
:102168000B4B9D4200D005B9E568A3689D4202D09B
:10217800284600F02BF965613046BDE87040FFF74E
:102188007DBE8A42D8D01268D5E700BF6003002020
:102198007803002050EA01032DE9F04105460E4678
:1021A80004D1FFF7B3FF0020BDE8F081831C71F173
:1021B800FF3324DB01F0ACFA4419EFF31188102344
:1021C80083F31288BFF36F8F0F4F104BB8681860F6
:1021D800FFF7B4FEB8680E492A463346183000F0B7
:1021E80097F9BA68537B43F0040353734046FFF7EB
:1021F80045FE01F08DFA201A20EAE070D4E76FF06E
:102208000104241AD9E700BF6003002080030020DE
:102218006B36000838B50446183001F058FAEFF369
:102228001185102383F31288BFF36F8F637B5A07DE
:1022380004D485F31188BFF36F8F38BD23F00403EE
:1022480063732046FFF732FEEFF30583002BF0D1CE
:1022580029460248BDE83840FFF7E2BE9203002055
:10226800014B9868704700BF600300202DE9F843D0
:102278000446EFF31187102383F31288BFF36F8F9F
:10228800067B16F001060DD087F31188BFF36F8F18
:10229800002383F31188BFF36F8F0423184602DFEE
:1022A800BDE8F883437B1A0704D587F31188BFF389
:1022B8006F8FF5E7D90943F008024BD14273A36841
:1022C80013B1204601F097F904F1180001F0FFF965
:1022D800A56D04F15808A84511D04FF0000975B153
:1022E800284601F088F905F1180001F0F0F9C5F861
:1022F80078902846FFF7DAFDA56DA845EFD1DFF8FD
:102308006480D8F808309C4204D1EFF30586003E7B
:1023180018BF0126D8F81850134A954200D00DB9B5
:10232800D8F80C50AB4202D0284600F04FF8C8F855
:10233800145016B10D48FFF795FDD8F808309C42A7
:10234800B3D1EFF30583002BAFD13846BDE8F8438E
:10235800FFF794BD03F07F0343F00803437301F0D4
:1023680042F9ACE7600300207803002078010020E0
:10237800044BC01A044BC0105843044B01221A5492
:10238800704700BFF8010020ABAAAAAA9203002058
:10239800C3897F2B12D80A4B1B6863B1094B90F98C
:1023A8000E201B689A4209DB437BDB0606D1064BED
:1023B800C31A18BF012303F0010070470023FAE78E
:1023C80088030020840300207800002070B50E4B9D
:1023D8000E4C1E7C06EB460304EBC3040546204660
:1023E80001F075F90A4B002228469A55FFF7D0FFED
:1023F80048B1084B08491A68013A2046D317BDE886
:10240800704000F085B870BD60030020F80100201E
:1024180092030020880300207923000838B5EFF3E1
:102428001185102383F31288BFF36F8F104B114A65
:102438009C681068A04206D1FFF7C8FF85F3118891
:10244800BFF36F8F38BD00211B7C11600A4AD35C33
:10245800002BF3D02046FFF79BFF0028EED0637BCC
:10246800DB0602D12046FFF793FD2046E4E700BFD4
:102478006003002080030020920300200748084AD8
:10248800084908B5121A01F0A0F80748074A084990
:10249800BDE80840121A01F098B800BF00000020FB
:1024A80064000020B43F0008000000200000002065
:1024B800B43F0008024B1868984208BF00207047D4
:1024C80034000020034B1B680BB9FFF771BA0020DA
:1024D800704700BF8C03002030B570B10B4B5B68B0
:1024E80098420AD0036843B1D3E90421D0E90445EE
:1024F800121941EB0501C3E90421D0E90032136048
:102508005A600023C0E9003330BD00BF340000200A
:10251800B3F1FF3F08BFB2F1FF3FF8B504461D46CF
:1025280016465AD08160EFF31187102383F312887F
:10253800BFF36F8F013275F1FF3321DA2C49D1E9EE
:1025480000206FF001039B1A4FF0FF3262EB00008E
:102558009E1B60EB0500012E70F1000301DA0126D5
:102568000020C4E90460FFF7A5FF224E8446706886
:10257800BCF1000F0DD1C4E90060046074601CE078
:10258800FFF7A0FF013645F10005361845EBE0706E
:10259800E7E7DCE90425D4E90431934271EB050E41
:1025A8001CDAD21ADCF8043065EB0105CCE9042505
:1025B800C4E900C31C60CCF80440FFF77BFF8442E9
:1025C80007D10D4B1C6824B901F068F82146FFF7C4
:1025D80073F987F31188BFF36F8FF8BD9B1A61EB0E
:1025E80005018445C4E90431C5D0DCF800C0BFE763
:1025F80010020020340000208C0300202DE9F04751
:10260800EFF31185102383F31288BFF36F8FDFF880
:10261800A090DFF8A080C9F80000FFF74BFF002664
:102628000027D9F80030D8E900ECD91750B1D0E923
:102638000442A34271EB020A1ADAE41A62EB0102BD
:10264800C0E9044213EB0E034CEB01010024C8E976
:102658000031C9F8004001F021F82146FFF72CF9B4
:1026680085F31188BFF36F8FBDE8F047FFF7D6BE3B
:1026780014EB0E024CEBE473C0E90467C8E90023CD
:10268800FFF72AFF85F31188BFF36F8F8368984798
:10269800EFF31185102383F31288BFF36F8FD9F8F6
:1026A80000301B1BC9F80030FFF704FFB9E700BF73
:1026B8008C0300201002002010B5EFF311841023C2
:1026C80083F31288BFF36F8FFFF7FCFE054A0346BA
:1026D800D2E90001181841EBE37184F31188BFF3C4
:1026E8006F8F10BD10020020014800F0DDBA00BF56
:1026F8006A3F00080FB407B5064B04AA186852F8D9
:10270800041B019200F008F803B05DF804EB04B074
:10271800704700BF103D00082DE9F04F8DB04368A9
:102728000293837815469A07804640F10D8100246C
:102738000E78002E00F00A81252E0BD04B1C039337
:102748000134029B4146304698470028C0F2F68083
:102758000399EDE74E788B1C252E0393F0D00027C4
:10276800B946BB46BBF11F0F38D8A6F12003102B82
:102778000AD8DFE803F02A090930090909210909FB
:102788000928092D09091F00A6F13003092B33D99F
:102798002A2E37D11BF0400F55F8043B40F08280B9
:1027A800002BA7BF4BF0200B9946C3F100094BF053
:1027B800280B01E04BF0010B039B13F8016B03930B
:1027C800002ECFD130E04BF0020B4BF0040BF3E7B7
:1027D8004BF0080BF0E74BF0100BEDE7BBF17F0F68
:1027E80019D8A6F13003092BD2D81BF0400F03D01B
:1027F8000A2101FB0737DFE70A2101FB09394BF002
:10280800200BD9E72E2E06D11BF0400F40F09E80FA
:102818004BF0400BD0E76C2E31D02BD8682E36D039
:102828006A2E3CD04C2E3AD0002F46F02003B8BF79
:102838002BF04002A3F16501BCBF1FFA82FB002701
:10284800022901D9612B2FD1073525F00705DFF8BB
:10285800ACA2083507271BF0080F66D00AEB070B58
:1028680056465E4563D1A4EB0A0A06EB0A02A9EBB9
:1028780007096FE1742E9FD07A2E9DD0D4E71BF004
:10288800800F18BF4BF4007B4BF0800B94E71BF4D0
:10289800807F18BF4BF4007B4BF4807B8CE74BF4B4
:1028A800207B89E71F4687E7A6F16301122900F21A
:1028B800F080DFE811F013004F00EE00EE00EE00AC
:1028C800EE004F00EE00EE00EE00EE00EE00FE001F
:1028D800E900EE00EE001B00EE00AF0055F8043BE7
:1028E8008DF8183001270DF1180AB4E755F804AB34
:1028F800834BBAF1000F08BF9A461BF0400F14BF74
:1029080039464FF0FF31504600F01CFF0746A2E75A
:10291800029B41462020984700280FDB013EB74222
:10292800F6D34C44A41BB14698E74E46F7E716F891
:10293800010B029B41469847002892DA98F802302A
:1029480043F0040388F802304FF0FF3420460DB0FE
:10295800BDE8F08F1BF0800F34D01BF4007F2CD023
:10296800073525F00705AA4669685AF8080B2BF0C1
:1029780010050029ADB237DA404261EB410145F458
:1029880080650DF1180B0A235A4600F0E7FEA0EB0C
:102998000B0301936B0662D5019B25F001019F4251
:1029A80089B240F3A180002E00F0998015F0100242
:1029B80040F09C80BB460D4623E0AA465AF8040B1B
:1029C800C117D4E7AA461BF4807F5AF8041B01D12B
:1029D8000846F5E71BF4007F15BF48B208B241F37B
:1029E800C01141F3C031C2E750EA0103C9D11BF05D
:1029F800400FC6D0002FC4D12BF0110295B2BB46B0
:102A0800019740F2064115EA01021CBF0BF1010BC8
:102A180000222CE02BF010021FFA82FB0A231BF085
:102A2800800C49D01BF400711DBF073525F0070540
:102A3800AA46AA461ABF5AF8080B69685AF8040B3E
:102A480050EA010545D12BF016051BF0400FADB239
:102A580042D0002F40D12BF0170295B2019715F004
:102A6800100248D0019B002E42D103F1010B290727
:102A78005AD4EB0706D5D9456FDD0199A9EB0B03AD
:102A88005F18CB465B4649E04BF0100B10237826C5
:102A9800C5E7782B04D1C6F1780343F01003BEE7ED
:102AA800029B4146252098470028FFF647AF02348D
:102AB80047E608230026B2E7AA461BF480715AF8B5
:102AC800040BBDD01BF400711ABFC0B2614680B2BE
:102AD800B6E72BF0060295B20DF1180B54E725F076
:102AE8001105ADB2BB468CE70D46B8E73B460D462F
:102AF80003F1020BBBE7DDF804B082E7AC3F000846
:102B0800A53F0008CDE904324146029B20209847A2
:102B18000028FFF613AF049B059A01339945F1DCB1
:102B2800A4EB0B01CC189B460AB3029B414630200C
:102B380098470028FFF602AF8EB901342744019B5D
:102B4800391B994224DC1D465DBB019AA9EB0B0990
:102B5800224455461446914435E0019F92E70234D9
:102B680041463046029B98470028E7DAE6E640F2FD
:102B780006410D42E2D015F0020F14BF2B20202091
:102B880015F4806F04F10104414618BF2D20E9E7D0
:102B9800029B414630209847002804F10104CEDA10
:102BA800CCE606AB013D4146585D029B984700289C
:102BB800CADAC3E6029B414620209847002804F160
:102BC8000104FFF6BBAEA9EB0403002BF2DCBFE562
:102BD800704700EBC100408840087047F8B50346CD
:102BE800FFF7F7FFB0FA80F0C0F11F0003EB800C8D
:102BF800CA00DCF81060171D0C4606328DB256B9B3
:102C0800012101FA00F0D9680143D960CCF81040DD
:102C1800DD539D52F8BDF1000431585AD85303EBE7
:102C2800C0009E52C5805D52F4E7043A2DE9F04198
:102C3800CC1D114424F0070421F007010E1BF708EE
:102C4800B7FA87F2C2F12405AD004FF00008073546
:102C5800C2F12002ED0804604146A760C4F80C8068
:102C6800920004F1100000F065FD6B0043F00103D1
:102C7800638004EBC5027B1B5900A4F800805180D7
:102C8800A21924F83550A2F80280A35304EBC70315
:102C980029465A8842F001025A802046BDE8F04190
:102CA800FFF79CBF002070470FB407B504A951F87F
:102CB800040B0191FDF71CFC03B05DF804EB04B0B4
:102CC80070477047012801D1EFF30583FEF742BF33
:102CD80001460068FFF7F6BF00210120FFF7F2BFA9
:102CE80061B662B680F31188BFF36F8F704772B612
:102CF800002383F31188BFF36F8FBFF34F8F30BF6B
:102D080062B6BFF36F8F7047202809D9B0F1004F22
:102D180008D80138B0FA80F0C0F11F0040007047B1
:102D2800082070473E20704708B5FEF75BF8002082
:102D380008BD01208840704700F003020432920069
:102D48000F23934043EA900010B5C3B29B0003F1F0
:102D5800804303F59C33020C9C6892FAA2F2B2FA03
:102D680082F224EA104091400143996010BD0B881B
:102D7800C3F30B0303F57D62C2F30B02782A82B01A
:102D880014D803F1804303F50E3348681A680243E8
:102D98001A600B88C3F30B0303F1804303F50E336A
:102DA80000201B680193019B02B070476FF08500FB
:102DB800FAE70B88C3F30B0303F57D62C2F30B023A
:102DC800782A9FBF03F1804303F50E3349681A68D8
:102DD8009DBF8A4300201A606FF08500704707285E
:102DE80008D8EA23C34013F0010F14BF00206FF086
:102DF800850070476FF08500704710B50888C0F3EC
:102E08000B00FFF7ECFF002820DB4A68FF2A1CD0E4
:102E1800D3B203F1804303F50E33C2F3423418688A
:102E2800C2F3042204FA02F220EA02021A60496894
:102E3800CBB203F1804303F50E33C1F302421868A5
:102E4800C1F304218A4002431A60002010BD08889B
:102E5800C0F30B0008B500F57D63C3F30B03782BB3
:102E68000AD800F1804000F50E304B6802689343A1
:102E780014BF0120022008BDFFF7B1FF002814BFCE
:102E880001200220F7E7704743685B681B690B6005
:102E98000020704743685B68586942400A404240D6
:102EA8005A610020704743685B6800209961704749
:102EB80043685B68090499610020704743685A6851
:102EC80053694B4053610020704710B503699868F7
:102ED800F8B1884219D1DC6808689860A14200D12D
:102EE800D860002008602AB19A680A60DA68996098
:102EF80002B9D960002010E0814206D1086820603C
:102F0800D8688142EDD1DC60EBE704460068002810
:102F1800F2D1002AE8D16FF0150010BDF0B5446871
:102F28000120676888401E46C2F3801327EA00071D
:102F38008B403B43636090FAA0F7B7FA87F7D4F861
:102F480008C04FF0030E7F000EFA07F72CEA070CB3
:102F580090FAA0F7B7FA87F7C2F3C1137F00BB4016
:102F680043EA0C03A36090FAA0F3B3FA83F3E7688B
:102F78005B000EFA03F327EA030790FAA0F3B3FA0B
:102F880083F302F030055B00C2F341229A403A43D2
:102F9800202DE26016D107292BD890FAA0F3226AD7
:102FA8002BB3B3FA83F39B000F2101FA03F322EA50
:102FB800030290FAA0F3B3FA83F39B0006FA03F333
:102FC8001343236290FAA0F3B3FA83F3226890FACA
:102FD800A0F05B000321B0FA80F02D0901FA03F399
:102FE800400022EA030385401D432560F0BD2B46BF
:102FF800D9E7030A616A93FAA3F282B1B2FA82F2BC
:1030080092000F2793FAA3F3B3FA83F307FA02F2B5
:103018009B0021EA02029E4016436662D2E72A46D6
:10302800EEE7F8B512F4003C076906460C4613466D
:1030380027D09A071ED55D0740F182805022D80616
:1030480003F4403518D542F4007225B1396921FAE4
:1030580004F0C00746D518036AD57168012349688A
:10306800A3408B61706800232146FFF757FF002DAE
:103078004CD114E01022E2E79906E6D542F48062CA
:10308800E3E7D00302F4403520D5DA0612D5002D47
:1030980046D12B464FF400727068FFF73FFF3B693B
:1030A80023FA04F2D20731D50122A24023EA02030F
:1030B8003B612BE013F0200004D04DBB2B464FF4AE
:1030C8008062E9E7B5B92B462A46E5E715B92B46EC
:1030D8003022E1E7396921FA04F212F0010F4FF0CA
:1030E80030020ED10120A04001433961BCF1000F2C
:1030F800B1D106E0396921FA04F212F00102F1D0E7
:103108000246706800232146FFF708FF0020F8BD3B
:10311800396921FA04F212F0010F4FF48062E0E7F6
:10312800396921FA04F212F0010F4FF40072D8E75E
:10313800590397D50121A1403046FFF7B9FE91E721
:103148006FF08500E3E770B50B468968054611B155
:103158005E680C6801B970BD8A682A4002D04B6865
:10316800304698471CB1236821461C46F2E723469F
:10317800FAE7F8B51F46044640680E461546FFF7BD
:10318800CDFE112F07D101212B0501FA06F104D537
:1031980063685B6899610020F8BD2046FFF788FEE8
:1031A800F9E730B5036813600579046804EBC504D2
:1031B800A34202D36FF0010030BD5C798C4201D08C
:1031C8000833F0E70020F7E74368C1F34B101B68AA
:1031D80001F01F01C05801238B40034214BF012393
:1031E800002313700020704710B54368C1F34B10DB
:1031F8001A6801F01F01845801238B402343835030
:10320800002010BD10B54368C1F34B14186801F0D5
:103218001F01235801228A4023EA02032350002079
:1032280010BD38B504460D46FFF7DEFF2946204697
:10323800FFF7E8FF002038BD82B003680193019BC7
:1032480043680193019B02B0704708B5436818684A
:1032580002680368D9070368C2F3C00248BF42F096
:1032680002029B07036848BF42F00402590703683B
:1032780048BF42F02002DB0542BF6FF4807342F082
:1032880008020360D10701D5FFF7D6FF930701D5E0
:10329800FFF7D2FF510701D5FFF7CEFF930601D5FF
:1032A800FFF7CAFF104608BD43681A6802F10C030D
:1032B80053E8003F43F0400302F10C0040E80031BE
:1032C8000029F3D1704743681A6802F10C0353E8E8
:1032D800003F23F0400302F10C0040E800310029D0
:1032E800F3D1704743681B68186810F080001CBF52
:1032F800D868C0F38010704743681B681868C0F32B
:103308008010704743681A6802F10C0353E8003FC5
:1033180043F0200302F10C0040E800310029F3D10A
:10332800704743681A6802F10C0353E8003F23F022
:10333800200302F10C0040E800310029F3D1704766
:1033480043681B681868C0F34010704743681B68DF
:103358001A68910602D5DA68920607D4186810F040
:10336800400004D0D868C0F380107047012070472F
:10337800012070470369C3E9021270470269936824
:103388000BB1D1681847704708B5002226201146AE
:10339800FDF722FBBDE808402620FDF70FBB37B537
:1033A8000269436810681C680D46D9688368DB6841
:1033B800E3B101AA9847002818DBE368019823F4D1
:1033C80000431921E360AA00AB0FA0FB0101FCF741
:1033D800DFFE6422B0FBF2F102FB11031B01323362
:1033E800B3FBF2F303EB01139BB2A36003B030BD50
:1033F80010B543681B6810201A681206FCD5EFF355
:10340800118280F31288BFF36F8F1C68240604D4DE
:1034180082F31188BFF36F8FEEE7596082F311884A
:10342800BFF36F8F10BD08B54368186803681A07A3
:1034380001D5FFF701FF03689B0643BF43680B7084
:1034480000204FF0FF3008BD10B543681868C46805
:10345800C36814F4805403D013F4C06F12D000244E
:10346800131B002B02DD03689B0601D4204610BD08
:1034780043680B5503681B0704F10104F0D5FFF7F7
:10348800DBFEEDE76FF08504F0E730B543681B68B5
:10349800DC68D868E40402D510F4C06F1AD0186844
:1034A80010F080000ED0EFF31184102080F3128802
:1034B800BFF36F8F0020151A002D04DC84F31188E8
:1034C800BFF36F8F30BD1D682D06F7D50D5C5D60AD
:1034D8000130F0E76FF08500F4E703695B681B686B
:1034E8000B6043681B68DB6803F4C063B3F5806F47
:1034F8002FD0A3F5C06CDCF1000343EB0C030B7178
:1035080043681B681B6903F44053B3F5805F22D0FE
:10351800B3F5405F21D0002B0CBF012303234B716F
:1035280043681B68DA68DB68D20403F4C06316D505
:10353800002B14BF032304238B7143681B685B694A
:1035480003F44073A3F5407253425341CB710020FA
:1035580070470223D3E70023E1E70223DFE7002BCC
:1035680014BF02230323E7E7704740B1C3685878C4
:1035780010F001001EBF1878B0FA80F040097047BB
:10358800EFF31183102383F31288BFF36F8FFEE7E5
:1035980008B5FFF7F5FF10B5D0E9003433B90020BE
:1035A800E268537843F00103537010BD20469847F2
:1035B8000028F4D00028B8BF4042E368FF28A8BF1D
:1035C800FF201870ECE700F0B5B800F0A5B8704718
:1035D80008B51024EFF3118384F31288BFF36F8FBB
:1035E800FFF785FBF6E7D0E9003213605A60002345
:1035F800C0E90033704708B5FFF7F5FF437B23F0B8
:10360800020343730023836008BD10B5EFF31184F0
:10361800102383F31288BFF36F8FFEF747FC84F300
:103628001188BFF36F8F10BD10B50146EFF31184F9
:10363800102383F31288BFF36F8F437B13F0280F97
:103648000AD183680BB1FFF7D6FF4B7B23F0040345
:103658004B730846FEF72AFC84F31188BFF36F8F7B
:1036680010BD01211838FFF7DFBF38B505460C46F5
:10367800FEF790FDB4F1FF3F08BFB5F1FF3F0AD058
:10368800C11709304FF00A024FF0000341F1000161
:10369800FCF77EFD38BD4FF0FF30FBE710B5FEF7B5
:1036A80009FF0446FEF70EFF74B1D4E904321B1A71
:1036B80062EBE072B3F1004F72F1000104DA002A04
:1036C800ACBF1846002010BD6FF00040FBE738B5CE
:1036D8000246EFF31185102383F31288BFF36F8F2F
:1036E800036893B1FEF7E6FE04461046FEF7F4FEC3
:1036F800844204D1FFF7D2FF0021FEF7DDF8002055
:1037080085F31188BFF36F8F38BD6FF01500F7E7A9
:1037180008B5FEF7D1FF08BD0A44914200F1FF3316
:1037280000D1704710B511F8014B03F8014F9142D1
:10373800F9D110BD02440346934200D1704703F803
:10374800011BF9E710B5024601448A42134603D02B
:103758001C780132002CF8D1181A10BDF0B5C3F14D
:1037680037070446FFB203F01F031046082BE6B2E2
:1037780033D0102B3ED06508A40844EA817445EA8A
:10378800C1752D194FEA910242EB5102290941EA0C
:1037980002716D1842EB1212290A41EA02616D1892
:1037A80042EB1222290C41EA02416D1842EB124207
:1037B800AD1842F10002EC0844EA4274D10804EB67
:1037C8008402A6EB4205EDB2092D0CD90134A5F10E
:1037D8000A0541F10001EDB212E0E40844EA41743F
:1037E80006F00705C908303554EA010200F8015B04
:1037F800BCD1F0BD240944EA017406F00F0509099B
:10380800092D84BFED19EDB2EDE70000014800680D
:083818007047000018020020B7
:08382000ACC9FF7F01000000AC
:1038280011110008A83800085D0500080000000014
:1038380000000000BC380008911300087039000827
:103848009113000834390008A10E0008D038000888
:103858009113000820390008911300085C3900080A
:103868009113000848390008911300080C39000822
:1038780091130008F838000891130008E43800088C
:103888002917000884390008911200080000000078
:103898002918000800000000150E000800000000AC
:1038A800B73E0008000000007C3C00084E000020E5
:1038B80000000000343F0008F43D00086C3C00089C
:1038C8006000002000000000993E00080000000091
:1038D800000000004C00002038020020C43E000810
:1038E800143D0008483C000850000020B8020020A1
:1038F800D23E0008283D0008483C0008520000203D
:10390800CC020020E03E00083C3D0008483C00088E
:1039180054000020E0020020EE3E0008503D000860
:10392800483C000856000020F4020020FC3E000835
:10393800643D0008483C00085800002008030020A7
:103948000A3F0008783D0008483C00085A0000205B
:103958001C030020183F00088C3D0008483C000864
:103968005C00002030030020263F0008A03D00082E
:10397800483C00085E00002044030020453F000842
:10398800F83D0008983C000862000020180000205C
:1039980000000000E12C000800000000E12C0008F5
:1039A80000000000E12C000800000000E12C0008E5
:1039B80000000000E12C000800000000E12C0008D5
:1039C800973E0008390E0008953E0008390E000899
:1039D800933E0008390E0008913E0008390E000891
:1039E8008F3E0008390E000800000000E12C000896
:1039F80000000000E12C000800000000E12C000895
:103A080000000000E12C000800000000E12C000884
:103A180000000000E12C000800000000E12C000874
:103A280000000000E12C000800000000E12C000864
:103A380000000000E12C000800000000E12C000854
:103A480000000000E12C00088D3E0008390E000837
:103A580000000000E12C000800000000E12C000834
:103A680000000000E12C000800000000E12C000824
:103A780000000000E12C000800000000E12C000814
:103A880000000000E12C000800000000E12C000804
:103A980000000000E12C000800000000E12C0008F4
:103AA80000000000E12C000800000000E12C0008E4
:103AB80000000000E12C000800000000E12C0008D4
:103AC800843900088533000800000000E12C000854
:103AD8008B3E0008390E000800000000E12C0008A9
:103AE80000000000E12C000800000000E12C0008A4
:103AF80000000000E12C000800000000E12C000894
:103B080000000000E12C000800000000E12C000883
:103B180000000000E12C000800000000E12C000873
:103B280000000000E12C000800000000E12C000863
:103B380000000000E12C000800000000E12C000853
:103B480000000000E12C000800000000E12C000843
:103B580000000000E12C000800000000E12C000833
:103B680000000000E12C000800000000E12C000823
:103B780000000000E12C000800000000E12C000813
:103B880000000000E12C000800000000E12C000803
:103B980000000000E12C000800000000E12C0008F3
:103BA80000000000E12C000800000000E12C0008E3
:103BB80000000000E12C000800000000E12C0008D3
:103BC80000000000E12C000800000000E12C0008C3
:103BD80000000000E12C000800000000E12C0008B3
:103BE80000000000E12C000800000000E12C0008A3
:103BF80000000000E12C000800000000E12C000893
:103C080000000000E12C000800000000E12C000882
:103C180000000000E12C000800000000E12C000872
:103C280000000000E12C000800000000E12C000862
:103C380000000000E12C000800000000E12C000852
:103C48002B300008912E00089D2E0008AF2E00088A
:103C5800B92E0008C52E0008E1120008D32E00086E
:043C68000000000058
:103C6C00D1310008F13100080D3200082B32000868
:103C7C00772D0008BB2D0008000000006D10000817
:0C3C8C00572E000800000000032E000866
:103C98002F340008F933000853320008ED150008E6
:103CA800E33400089334000851340008B1320008A6
:103CB800CF320008ED3200080D3300082B3300081E
:103CC8000133000849330008451400089D14000812
:0C3CD80055330008793300087D330008E4
:103CE400000000200000000000000B06020000009D
:103CF400F83C0008000000087C3E0008240002078D
:103D040000000020843E000820000B110800002061
:103D1400FFFF0000001C024007000000300000000C
:103D240080000000FFFF00000018024006000000B1
:103D34003000000040000000FFFF000000140240BB
:103D4400050000003000000020000000FFFF00001C
:103D540000100240040000003000000010000000C9
:103D6400FFFF0000000C02400300000030000000D0
:103D740008000000FFFF00000008024002000000ED
:103D84003000000004000000FFFF000000040240B7
:103D9400010000003000000002000000FFFF0000EE
:103DA400000002400000000030000000010000009C
:103DB400703900085C3900084839000834390008B3
:103DC400203900080C390008F8380008E4380008E5
:103DD40000000000000000000000000000000000DF
:103DE40000000000000000000000000000000000CF
:103DF4000038024000440040BC38000811040000B0
:103E0400203E000801000000000000000000000047
:103E140000000000283E0008913300084000000024
:103E240000000200303E000801000000383E000897
:103E340002000000470000000002000067000000CC
:103E440000000000283800082838000898380008C6
:103E5400A0380008A8380008A8380008001000009E
:103E640000304F4E004F4646004C45442073746169
:103E740074653A2025730A00464C4153485F30006C
:103E84005352414D5F30000A060505040103010247
:103E94000101010001696E746572727570742D639D
:103EA4006F6E74726F6C6C65724034303031336392
:103EB4003030007263634034303032333830300095
:103EC4006770696F4034303032316330300067706E
:103ED400696F403430303231383030006770696F88
:103EE400403430303231343030006770696F4034E0
:103EF40030303231303030006770696F40343030E8
:103F04003230633030006770696F403430303230A3
:103F1400383030006770696F4034303032303430BC
:103F240030006770696F40343030323030303000E8
:103F340072657365742D636F6E74726F6C6C6572E9
:103F44000073657269616C40343030303434303021
:103F5400000000000000000000010203040607083E
:103F6400096D61696E002A2A2A20426F6F74696E96
:103F740067205A6570687972204F53206275696CA6
:103F8400642076342E302E302D333939322D676645
:103F94003064303236346330353732202A2A2A0AE4
:103FA40000286E756C6C29002A666C6F61742A0097
:103FB400AD2C0008C105000800000000312D0008E8
:103FC40000000000000000000000000028000020A5
:103FD400000000000000000000C201000001030016
:103FE4000024F4003400002034000020FFFFFFFF11
:0C3FF400FFFFFFFFFFFFFFFFFFFFFFFFCD
:1040000000000000000000000000000000000000B0
:084010000000000000000000A8
:0440180015E015E0BA
:04000005080008E502
:00000001FF
